:02000002D0002C
:1040000000400D00A4540D00000006000C00050146
:084010000401BD0B00000000DB
:0440180058520D00ED
:10401C0009480A49884208B505D0094A824202D0AB
:10402C00121A01F0D1F80748074A0021121A01F0C0
:10403C00D9F8014808BD00BFBCE5032014540D009D
:10404C0024E6032024E60320F0E7032070B5074E96
:10405C00074C00F00BFDA41BA4080025A54200D1C1
:10406C0070BD56F8043B98470135F7E7E8530D004F
:10407C000C540D0000F03CB808B500F069F8BDE830
:10408C00084000F0B5BC00F0AFBA00F0B5BA00784B
:10409C00B0FA80F0400970470123037070470000AC
:1040AC0010B1024B01221A70704700BF40E603208A
:1040BC0010B50446006808B100F09EFA204610BD09
:1040CC0010B5094C2378BFF35B8FDB070AD420466D
:1040DC00FFF7DDFF30B10548012100F0E1FA204681
:1040EC00FFF7DAFF014810BD28E603202CE6032079
:1040FC0008B501210E2000F0D1FF0021122000F0A4
:10410C00CDFF00F0B9FD4FF4165100F0A9FDFFF7FB
:10411C00D7FF0622012100F0CDFAFFF7D1FF0A4AA2
:10412C00012100F019FBFFF7CBFF012100F0D8FAB9
:10413C00FFF7C6FF002100F0E6FAFFF7C1FFBDE86C
:10414C000840024900F04DBB40420F00AD400D004D
:10415C001FB51B4B1A78CAB100241C702A238DF88A
:10416C000C30FFF7ADFF012302AA03A9009400F065
:10417C0025FB00F081FD02A900F0C3FB9DF808307F
:10418C00312B05D101210E2000F099FF04B010BD98
:10419C00302B01D12146F6E73F2BF7D1122000F04E
:1041AC00A7FF01280CBF442355238DF80C30FFF7D3
:1041BC0087FF0094012302AA03A900F0FFFAE5E7A8
:1041CC0040E6032038B50A4C0A4BA36000250320B7
:1041DC002560A580A57100F07BF90749074A2046A8
:1041EC0000F0DAFF29460120BDE8384000F078B92C
:1041FC0034E603200000FFFFBD400D0024E6032041
:10420C0008B5024B1B689B68019308BD680203004C
:10421C0008B5024B1B68DB68019308BD68020300FC
:10422C0008B5024B1B689B68019308BD2C02030068
:10423C0008B5024B1B68DB68019308BD2C02030018
:10424C0008B5024B1B681B69019308BD2C020300C7
:10425C0008B5024B1B685B69019308BD2C02030077
:10426C0008B5024B1B685B68019308BD180203007C
:10427C0008B5024B1B685B69019308BD180203006B
:10428C0008B5024B1B685B6C019308BD4802030028
:10429C0008B5024B1B689B6C019308BD48020300D8
:1042AC0008B5024B1B685B69019308BD64020300EF
:1042BC0008B5024B1B681B68019308BD3C02030048
:1042CC0008B5024B1B68DB68019308BD3C02030078
:1042DC0008B5024B1B681B69019308BD3C02030027
:1042EC0008B5024B1B685B69019308BD3C020300D7
:1042FC0008B5024B1B689B69019308BD3C02030087
:10430C0008B5024B1B68DB69019308BD3C02030036
:10431C0008B5024B1B681B6A019308BD3C020300E5
:10432C0008B5024B1B689B6A019308BD3C02030055
:10433C0008B5024B1B681B6A019308BD28020300D9
:10434C0008B5024B1B685B6A019308BD2802030089
:10435C0008B5024B1B689B6A019308BD2802030039
:10436C0008B5024B1B68DB6A019308BD28020300E9
:10437C0008B5024B1B681B6B019308BD2802030098
:10438C0008B5024B1B685B6B019308BD2802030048
:10439C0008B5024B1B681B6C019308BD2802030077
:1043AC0008B5024B1B689B68019308BD30020300E3
:1043BC0008B5024B1B68DB68019308BD3002030093
:1043CC0008B5024B1B681B69019308BD3002030042
:1043DC0008B5024B1B68DB69019308BD3002030072
:1043EC0008B5024B1B681B6A019308BD3002030021
:1043FC0008B5024B1B685B6A019308BD30020300D1
:10440C0008B5024B1B689B6A019308BD3002030080
:10441C0008B5024B1B68DB6A019308BD3002030030
:10442C0008B5024B1B681B6B019308BD30020300DF
:10443C0008B5024B1B689B6B019308BD300203004F
:10444C0008B5024B1B681B6C019308BD30020300BE
:10445C0008B5024B1B685B6C019308BD300203006E
:10446C0008B5024B1B681B68019308BD4C02030086
:10447C0008B5024B1B685B68019308BD4C02030036
:10448C0008B5024B1B681B69019308BD4C02030065
:10449C0008B5024B1B685B69019308BD4C02030015
:1044AC0008B5024B1B689B69019308BD4C020300C5
:1044BC0008B5024B1B68DB69019308BD4C02030075
:1044CC0008B5024B1B681B6A019308BD4C02030024
:1044DC0008B5024B1B685B68019308BD2002030002
:1044EC0008B5024B1B68DB6A019308BD2002030070
:1044FC0008B5034B1B68D3F88830019308BD000046
:10450C002002030008B5034B1B68D3F894300193C9
:10451C0008BD00002002030008B5024B1B685B6855
:10452C00019308BD4002030008B5024B1B689B6851
:10453C00019308BD4002030008B5024B1B68DB6801
:10454C00019308BD4002030008B5024B1B681B69B0
:10455C00019308BD4002030008B5024B1B685B6960
:10456C00019308BD4002030008B5024B1B689B6910
:10457C00019308BD4002030008B5024B1B68DB69C0
:10458C00019308BD4002030008B5024B1B681B6A6F
:10459C00019308BD4002030008B5024B1B681B6B5E
:1045AC00019308BD4002030008B5024B1B685B6B0E
:1045BC00019308BD4002030008B5024B1B681B6C3D
:1045CC00019308BD4002030008B5024B1B685B6CED
:1045DC00019308BD4002030008B5024B1B68DB6B5E
:1045EC00019308BD4402030008B5024B1B681B680D
:1045FC00019308BD1C02030008B5024B1B685B68E5
:10460C00019308BD1C02030008B5024B1B685B6CD0
:10461C00019308BD1C020300002240681146FFF7FD
:10462C00B3BF002240681146FFF7BEBF40680022AE
:10463C00FFF7B2BF4068002281F00101FFF79CBF79
:10464C00002340681A461946FFF78EBF00234068C6
:10465C001A461946FFF780BF002240681146FFF743
:10466C0073BF002240681146FFF75EBF406800220E
:10467C000221FFF761BF002340681A46FFF74CBFC9
:10468C00024B03225A60024A1A60704750E603201C
:10469C0074520D000021FFF7D3BE0021FFF7D8BEE6
:1046AC0010B5044608462170FFF792FE00236360A4
:1046BC00204610BD13B504460078CDE90021FFF764
:1046CC00E9FFDDE90021034640B92078FFF7A0FEA1
:1046DC00207802B0BDE81040FFF7DFBF02B010BD7C
:1046EC0013B5044600780191FFF7D4FF019940B946
:1046FC002078FFF755FE207802B0BDE81040FFF798
:10470C00CCBF02B010BD13B5044600780191FFF781
:10471C00C1FF019940B92078FFF74AFE207802B01A
:10472C00BDE81040FFF7B9BF02B010BD400830B56E
:10473C001860002418688842E5B206D90134082CA8
:10474C0002D040081860F5E70725024B5B5D13703B
:10475C0030BD00BFA8520D002DE9F04188B00023F8
:10476C000446007802930E461746FFF793FF054662
:10477C0000BB94F800800146142203A800F032FD1F
:10478C000B232A4603A94046ADF80C30FFF730FE48
:10479C0004988DF8075002AB0DF1070207FB06F1E8
:1047AC00FFF7C4FF20789DF80710FFF709FE20786B
:1047BC00FFF773FF029808B0BDE8F08130B587B001
:1047CC0004460A9D00950078FFF71AFE3DB9207843
:1047DC0002A9FFF72DFE9DF81430DB07F7D407B0C4
:1047EC0030BD13B5044600780191FFF753FF0199D2
:1047FC00024640B92078FFF713FE207802B0BDE8DE
:10480C001040FFF74ABF02B010BD000010B5094BB5
:10481C00094C022200201A60084B2060A080A07175
:10482C00A360FFF755FE2046054A0649BDE8104037
:10483C0000F0B2BC64E6032058E603200000FFFF42
:10484C0024E60320BD400D0010B50446006808B1F5
:10485C00FFF71EFD204610BD10B58368044613B14A
:10486C00032201469847204610BD000010B5064CA7
:10487C00002320462360FFF703FD2046034A04492A
:10488C00BDE8104000F088BC68E6032024E6032055
:10489C0055480D00F8B506460D468F180024BD424C
:1048AC000CD0336815F8011B9B6830469847031EE3
:1048BC0001DB1C44F3E7002C08BF1C462046F8BD66
:1048CC0013B50446084659B1019100F0B7FC2368B2
:1048DC000199DB680246204602B0BDE8104018473B
:1048EC0002B010BD03689B68184738B50D2105460A
:1048FC00FFF7F8FF0A2104462846FFF7F3FF204490
:10490C0038BD38B50546FFF7DBFF04462846FFF7F0
:10491C00ECFF204438BD30B58BB000238DF824302B
:10492C00012A98BF0A2209AC0D46B1FBF2F101FB3A
:10493C00125303F0FF03092B94BF30333733DBB230
:10494C00AA4204F8013DEFD92146FFF7B9FF0BB09D
:10495C0030BD002340681A461946FFF7FDBD000024
:10496C00014B024A1A6070476CE60320B0520D00EE
:10497C00024B1A68024B1A60704700BFBCE503205B
:10498C0070E6032010B50446FFF766FF204610BD05
:10499C000348044A04490023836000F0FDBB00BFB8
:1049AC0074E6032024E6032091490D00014B1860A6
:1049BC00704700BFC0E5032008B50B4B43B100F0B6
:1049CC005BF903681B699847002801DDAFF3008091
:1049DC00064B43B100F0CEF903681B6998470028D9
:1049EC0001DDAFF3008008BD0000000000000000F6
:1049FC0008B5FFF7E1FFFFF73BFC014B186008BD62
:104A0C00D4E703200248034A0349121A00F0DCBB26
:104A1C0000F4032004F4032010540D0007B5002308
:104A2C0000931A466FF07701FFF76CFD03B05DF849
:104A3C0004FB000007B543880A2B08D0502B0BD180
:104A4C00094B1B684BB103B05DF804EB1847FFF73B
:104A5C00E5FF03B05DF804FB002300931A466FF0EA
:104A6C007701FFF74FFDF4E788E6032038B5124CC9
:104A7C001248134D0021FFF7C7FD2368AB42114BC1
:104A8C000CBF012200221A7002D0FFF7BBFF256079
:104A9C00FFF7E6FB044600F0ADFB0B4B13B12046D1
:104AAC00AFF3008000210848FFF796FDBDE83840C1
:104ABC0006480021FFF71CBD00F40320B9490D0086
:104ACC001E1C279A84E6032000000000414A0D00BA
:104ADC00704710B51821044600F063FB204610BD4A
:104AEC00F0B5037D062B8DB00E4600F104074FF098
:104AFC00000412D000F1080515F8011D0A223046F9
:104B0C00FFF709FFAF42044419D0002CF4D02E213A
:104B1C003046FFF7E7FE0444EEE72F236A4639469A
:104B2C000A208DF80040FFF7BBFB684600F086FBBF
:104B3C0033680246DB68694630469847044620468F
:104B4C000DB0F0BD10B5054B0446112240F8043BE6
:104B5C00002100F047FB204610BD00BFD8520D00CD
:104B6C000346074A10B543F8042B01F1100251F823
:104B7C00044B43F8044B9142F9D10A781A7010BDDA
:104B8C00D8520D0010B59DF8084044EA032343EABF
:104B9C00024242EA016104234160037510BD00002A
:104BAC0013B5054B0360CB7800938B784A78097862
:104BBC00FFF7E8FF02B010BDD8520D0041747047EA
:104BCC00704708B50021007CFFF76AFC40EAE070F2
:104BDC0008BD08B50121007CFFF762FC40EAE070DB
:104BEC0008BD08B5007CFFF753FC20EAE07008BD57
:104BFC0008B5007CFFF744FC20EAE07008BD13B553
:104C0C000446007C0191FFF743FC0028019901DC6C
:104C1C00607C20B1207CFFF74BFC20EAE07002B0F6
:104C2C0010BD007CFFF74CBC10B51421044600F0FD
:104C3C00B8FA204610BD000010B54FF47A73044644
:104C4C0008460021C4E90113044B2360012320749E
:104C5C0063741146FFF704FC204610BDEC520D00A6
:104C6C00007C0022FFF704BC10B51422044600217E
:104C7C0000F0B8FA204610BD10B5104C88B003A84F
:104C8C00FFF7F2FF2178BFF35B8F11F0010111D117
:104C9C0020460191FFF7FBF9019958B103AA084886
:104CAC00FFF7CAFF2046FFF7F7F9064A0649044802
:104CBC0000F072FA024808B010BD00BF8CE6032069
:104CCC0090E6032024E60320CD4B0D007047417481
:104CDC00704708B5007CFFF723FB20EAE07008BDA5
:104CEC0008B5007CFFF7F4FA20EAE07008BD08B5BF
:104CFC00007CFFF7FDFA40EAE07008BD08B5007CC7
:104D0C00FFF7EEFA40EAE07008BD007CFFF7F8BA56
:104D1C0037B5457C04462DB1207C03B0BDE830404E
:104D2C00FFF7CEBA007C0191FFF7FAFA002801993F
:104D3C00F2DC284603B030BD10B51421044600F057
:104D4C0030FA204610BD000010B54FF0000C0446A0
:104D5C00084611464FF47A72C4E901C2044A226033
:104D6C000122207462741A46FFF7A2FA204610BD85
:104D7C001C530D0013B50E4C2178BFF35B8F11F053
:104D8C00010112D120460191FFF781F9019960B11F
:104D9C00084A094B0948FFF7D7FF2046FFF77CF973
:104DAC00074A0849054800F0F7F9044802B010BD5D
:104DBC00A4E60320A8E603202CE70320B0E7032099
:104DCC0024E60320D94C0D007047F8B5064615466D
:104DDC000C468F18BC4206D0336814F8011B9B6834
:104DEC0030469847F6E72846F8BD007C0022FFF7CE
:104DFC009FBA007C0021FFF7A3BA007C0021FFF7CB
:104E0C00A7BA007C0021FFF7ABBA007C0021FFF7AA
:104E1C00AFBA10B51421044600F0C3F9204610BDFA
:104E2C0010B54FF47A73044608460021C4E9011307
:104E3C00034B236020741146FFF7AAFA204610BDDD
:104E4C004C530D00002240681146FFF77DBB002239
:104E5C0040681146FFF798BB002240681146FFF7E7
:104E6C00A3BB40680022FFF797BB4068002281F08B
:104E7C000101FFF781BB002340681A461946FFF772
:104E8C0073BB002240681146FFF74EBB40680022FE
:104E9C000221FFF751BB002340681A46FFF73CBBC9
:104EAC00024B04225A60024A1A607047C4E703207E
:104EBC0074530D00002340681A46FFF72DBB406861
:104ECC0000220221FFF738BB002240681146FFF791
:104EDC002BBB002240681146FFF736BB002340680D
:104EEC001A461946FFF738BB002340681A46194684
:104EFC00FFF73ABB40680021FFF75EBB406800211A
:104F0C00FFF762BB4068002281F00101FFF734BB60
:104F1C0040680022FFF740BB002240681146FFF7B3
:104F2C0043BB002240681146FFF72EBB2DE9F0432E
:104F3C00002495B016460D460746FFF703FE2146A2
:104F4C0018220EA8009400F04DF94023CDE90C3442
:104F5C0021466B460CAA3046FFF75AF90446002846
:104F6C004CD1024601216868FFF7EEFA0221804617
:104F7C0022466868FFF7E8FA009E81462146002E1B
:104F8C003CD000293AD17368022B03D00A2B11D0E4
:104F9C00F669F4E7B8F1000F0AD0716906A804317C
:104FAC0007ADFFF7FDFD0FCD3C1D0FC42B68237023
:104FBC004146EDE7B9F1000F01D14946E8E77469C4
:104FCC00102201A800F00EF906238DF8143001AD63
:104FDC0004F108031834186859682A4603C20833C8
:104FEC00A3421546F7D101A906A807ADFFF7B8FDF6
:104FFC000FCD3C1D0FC42B682370DEE70098FFF724
:10500C00FFF8384615B0BDE8F0830000024B034AA8
:10501C001A6000225A607047CCE70320B0530D0091
:10502C00232813B502D9002002B010BDA0F10B0348
:10503C00022B1AD8174C2178BFF35B8F11F00101AA
:10504C000BD120460191FFF722F8019928B11248A3
:10505C00FFF726FB2046FFF71FF80F4B1878FFF7DA
:10506C00BFF90028DFD10120DEE7012809D800F0C4
:10507C006BF80021007CFFF783F980F00100C0B2CF
:10508C00D2E709380128EED8FFF774FE007CFFF751
:10509C003FF9F2E744E6032048E60320232838B51D
:1050AC0004460D460AD8FF2908D0FFF7B9FF28B1EE
:1050BC0029462046BDE83840FFF7B2B838BD38B5B0
:1050CC0004460D46FFF7B4F8FF2810D0062804D884
:1050DC004D2323FA00F0C30709D42046FFF7A0FFA5
:1050EC0028B129462046BDE83840FFF7A9B838BD9D
:1050FC0010B50446FFF79CF8031FDBB2012B08D94F
:10510C002046FFF78DFF20B12046BDE81040FFF789
:10511C009FB8002010BD000038B500232025438027
:10512C00142304460380856005610649284600F077
:10513C003AF804496060284600F035F8E0602046F3
:10514C0038BD00BFE4530D0030B50F4D2978BFF3C7
:10515C005B8F11F0010487B013D12846FEF797FF3F
:10516C0078B101A8FFF7D8FF01AA21460748FFF73D
:10517C0057FE2846FEF790FF054A0649034800F003
:10518C000BF8024807B030BDD8E70320DCE703205A
:10519C0024E60320D54D0D000B460146184600F0C1
:1051AC0005B8FEF772BFFEF76EBF000010B5054CD8
:1051BC0013462CB10A4601460220AFF3008010BD05
:1051CC002046FCE7000000000A44914200F1FF3346
:1051DC0000D1704710B511F8014B03F8014F914203
:1051EC00F9D110BD02440346934200D1704703F835
:1051FC00011BF9E738B50D4B1D68AB6B04467BB949
:10520C001820FFF7F1F90A4A0A4BA863C0E90023FA
:10521C00094B83600B23838101220023C0E9042303
:10522C00AB6B00221C615A6138BD00BFC0E5032086
:10523C000E33CDAB34126DE6ECDE0500034613F8ED
:10524C00012B002AFBD1181A013870471D400D00A4
:10525C0059400D0081400D0085400D0000000000FC
:10526C00000000000000000083460D0079460D0090
:10527C006F460D0065460D0059460D004D460D005C
:10528C00014F0D00094F0D0041460D0039460D0030
:10529C002F460D0025460D00394F0D000008101843
:1052AC00202830386170700025592D256D2D25640E
:1052BC005425483A254D3A2553257A006173637479
:1052CC00696D65000000000000000000ED4A0D0053
:1052DC00DD4A0D00DF4A0D00000000000000000058
:1052EC00CD4B0D00354C0D000B4C0D00A1480D00A5
:1052FC00FD4B0D00CF4B0D00DF4B0D002F4C0D0067
:10530C00EF4B0D00C94B0D00000000000000000029
:10531C00D94C0D00454D0D001D4D0D00A1480D0043
:10532C00ED4C0D00094D0D00FB4C0D00174D0D0003
:10533C00DB4C0D00DF4C0D000000000000000000F5
:10534C00D54D0D001F4E0D00F74D0D00D74D0D0026
:10535C00FF4D0D00074E0D000F4E0D00174E0D00AA
:10536C000000000000000000A34E0D00994E0D003F
:10537C008F4E0D00514E0D005F490D00834E0D00F8
:10538C00014F0D00094F0D00774E0D006F4E0D00B3
:10539C00654E0D005B4E0D00394F0D0000000000F6
:1053AC0000000000C14E0D00CB4E0D00D54E0D007F
:1053BC00DF4E0D00E94E0D00F54E0D00014F0D00B6
:1053CC00094F0D00114F0D001D4F0D00254F0D0005
:1053DC002F4F0D00394F0D0000000000D1410D0082
:1053EC008D460D0019480D0079480D006D490D00D2
:1053FC007D490D009D490D00AD4E0D0019500D005D
:04540C00000000009C
:045410000000000098
:10541400C8520D00C4E50320000000000000000095
:105424000000000000000000000000000000000078
:105434000000000000000000000000000000000068
:105444000000000000000000000000000000000058
:105454000000000000000000000000000000000048
:105464000000000000000000000000000000000038
:08547400000000000000000030
:10547C00FFFFFFFF00000102030405060708090AED
:10548C000B0C0D0E0F101112131415161718191AE8
:08549C001B1C1D1E1F2028002F
:0454A40078563412F0
:04000003D000401CCD
:00000001FF
